:100000000C9434000C9451000C9451000C94510049
:100010000C9451000C9451000C9451000C9451001C
:100020000C9451000C9451000C9451000C9451000C
:100030000C94C2010C9451000C9451000C9451008A
:100040000C9451000C9451000C9483050C945100B5
:100050000C9451000C9451000C9451000C945100DC
:100060000C9451000C94510011241FBECFEFD4E02A
:10007000DEBFCDBF11E0A0E0B1E0E8E8F6E102C0EC
:1000800005900D92AA32B107D9F711E0AAE2B1E0CA
:1000900001C01D92A13FB107E1F70E94D3030C9468
:1000A000420B0C94000080937C0080917C00806463
:1000B00080937C0080917C008F7D80937C00809178
:1000C0007A00876080937A0080917A0080688093BC
:1000D0007A0080917A00806480937A0080917A001F
:1000E00086FDFCCF9091780080917900382F20E038
:1000F000290F311DC9010895FF920F931F93CF93CC
:10010000DF93F82EC6E4D1E000E717E18F2D0E94BF
:10011000530089939993C8010197F1F781E0CE3696
:10012000D807A1F7709144016091450140E050E08B
:100130001AC0722F632F8081918122813381281709
:10014000390724F0872F962F9C0106C09383828362
:100150003183208340E050E0329681E0EE36F807AC
:1001600041F7722F632F4130510529F0E6E4F1E0A9
:1001700041E050E0E0CF709344016093450150931B
:10018000410140934001E2E5F1E020E030E081915F
:100190009191280F391F81E0E236F807C1F73093BB
:1001A000430120934201C90168E070E00E94E0072A
:1001B000CB0160936E0190936F01DF91CF911F91FE
:1001C0000F91FF9008950F931F93CF93DF9390E0CB
:1001D000FC01EE0FFF1FE80FF91FEA57FE4F718376
:1001E000608361E071E007C0DA010D931C93D18355
:1001F000C0836150B9F0862F90E0880F991FAC0141
:1002000041565E4FFA01C081D181FC01E356FE4F99
:100210000081118128813981D8018D919C91281705
:10022000390710F37F5F672F763029F7DF91CF9181
:100230001F910F9108950F931F93CF93DF9361E068
:1002400071E007C0DA010D931C93D183C083615024
:10025000B9F0862F90E0880F991FAC0141565E4F90
:10026000FA01C081D181FC01E356FE4F008111816A
:1002700028813981D8018D919C912817390710F375
:100280007F5F672F763029F7DF91CF911F910F9114
:100290000895EF92FF920F931F93CF93DF93E09017
:1002A0002C0170E0FF24072F10E0F801EE0FFF1F74
:1002B000E156FE4FC081D181288139812115310558
:1002C00011F08A81E82AF801EE0FFF1FEF55FE4F6B
:1002D0000190F081E02D80819181AF2DB0E0281751
:1002E000390769F0FD01EE0FFF1FEC58FE4F318317
:1002F0002083A856BE4F8A8111968C932BC0FD0196
:10030000EE0FFF1FEC58FE4F31832083FD01E756AF
:10031000FE4F8A81808361E0DF0105C08C9192816C
:10032000892B8C936F5FA801460F511DFA01EE0FC8
:10033000FF1FE156FE4F0190F081E02D28813981A9
:10034000808191812817390719F44630510534F31B
:100350007150760F7F5FF394763008F4A4CFE0926B
:100360002C01EF2DF0E0EE0FFF1FEC58FE4F8FEF4A
:100370009FEF91838083DF91CF911F910F91FF9029
:10038000EF9008951F920F920FB60F9211242F93A2
:100390003F934F935F936F937F938F939F93AF930D
:1003A000BF93EF93FF9320912B012223B9F1A22F4A
:1003B000B0E0FD01EE0FFF1FEC58FE4F80819181F0
:1003C00090938B0080938A0095B1A856BE4F8C9174
:1003D0008095892385B92F5F20932B0180918A0016
:1003E00090918B008F5F9F4F81F510922B0186E9D2
:1003F0009FEF909385008093840080918100887F97
:100400008093810085E08093810080912A01882378
:10041000E1F00E94490110922A0117C080917401F5
:100420009091750190938B0080938A008091810058
:10043000887F809381008091810083608093810018
:100440008FEF85B981E080932B01FF91EF91BF91F0
:10045000AF919F918F917F916F915F914F913F915C
:100460002F910F900FBE0F901F9018950E941B01A7
:1004700081E080932A0108952F923F924F925F92DC
:100480006F927F928F929F92AF92BF92CF92DF92A4
:10049000EF92FF920F931F93DF93CF93CDB7DEB709
:1004A0003B014C0119012A016D897E898F89988D44
:1004B0006A197B098C099D09621A730A840A950AD4
:1004C000A40193010E94C107E218F3080409150969
:1004D000A80197010E94F3072A0D3B1D4C1D5D1DCD
:1004E000B901CA01CF91DF911F910F91FF90EF9059
:1004F000DF90CF90BF90AF909F908F907F906F9044
:100500005F904F903F902F9008956F927F928F92BF
:100510009F92AF92BF92CF92DF92EF92FF920F9392
:100520001F9386E891E09093A00180939F0103962A
:100530009093A2018093A10103969093A4018093CC
:10054000A30103969093A6018093A501039690932F
:10055000A8018093A70103969093AA018093A90113
:1005600081E08093880182E080938B0184E0809316
:100570008E0188E08093910180E18093940180E274
:100580008093970100D000D0ABE26A2EA1E07A2ED2
:10059000812C912CEDB7FEB76182728283829482A6
:1005A0006AE570E080E090E020E030E040E050E07C
:1005B000F3EBEF2EF12C012D112DE3E4AE2EB12C37
:1005C000C12CD12C0E943C0270938701609386015C
:1005D00070938A0160938901EDB7FEB761827282E0
:1005E000838294826AE070E080E090E020E030E076
:1005F00040E050E00E943C020F900F900F900F904F
:1006000070938D0160938C017093900160938F01C2
:10061000709393016093920170939601609395019A
:100620000E941B010E944901EFE6F0E08081846096
:100630008083E1E8F0E08081836080831F910F91E7
:10064000FF90EF90DF90CF90BF90AF909F908F90F2
:100650007F906F9008958F929F92AF92BF92CF92AA
:10066000DF92EF92FF920F931F934C0100D000D0C6
:10067000882777FD8095982F2BE231E040E050E00D
:10068000EDB7FEB7218332834383548320E030E00B
:1006900040E050E0F3EBEF2EF12C012D112DE3E4BF
:1006A000AE2EB12CC12CD12C0E943C020F900F9089
:1006B0000F900F90F401EE0FFF1FE80DF91DEA57A0
:1006C000FE4F718360831F910F91FF90EF90DF9039
:1006D000CF90BF90AF909F908F90089560912E0122
:1006E00070912F01653B710544F58091280190912F
:1006F0002901892B11F180E090E00E942B0364EB2B
:1007000070E080912E0190912F01681B790B81E0A0
:1007100090E00E942B030E94360280912E0190915E
:100720002F01019690932F0180932E01843B910518
:1007300024F0109229011092280160912E017091ED
:100740002F0177FD2AC08091280190912901892BE2
:1007500021F580E090E00E942B0364EB70E0809133
:100760002E0190912F01681B790B81E090E00E948F
:100770002B030E94360280912E0190912F01019748
:1007800090932F0180932E011816190634F081E002
:1007900090E0909329018093280181E080933901B2
:1007A0000895089508952F923F924F925F926F920D
:1007B0007F928F929F92AF92BF92CF92DF92EF92F1
:1007C000FF920F931F93CF93DF938FE384B915B8F4
:1007D0000E94FF048CE091E09093EE018093ED0184
:1007E0008AE191E09093EC018093EB010E948502F5
:1007F000569A789414EB412E512C612C712CBCE349
:100800002B2E312CC8ECD0E080913901813009F0D9
:1008100066C0109285011092840152C0109273013B
:10082000109272010E9453009093730180937201A1
:10083000809084019090850100D000D0AA2797FD78
:10084000A095BA2FEDB7FEB74182528263827482BF
:10085000BC01CD0128E330E040E050E0AEE4EA2EF8
:10086000A2E0FA2E012D112DAA24BB2465010E94BD
:100870003C0200D0F401E65CFE4F6083EDB7FEB7AA
:10088000319680E091E0ADB7BEB712969C938E93FF
:10089000119793828282648315820E94440880911A
:1008A0008401909185010196909385018093840144
:1008B000ADB7BEB716960FB6F894BEBF0FBEADBFAC
:1008C0008091840190918501863091050CF4A6CF2A
:1008D00087E091E00E945908B2E0B093390180911D
:1008E0002D01882319F0813091F408C05E9A0E948E
:1008F0006E03309283012092820109C05E9A80EDDE
:1009000097E0FE013197F1F70197D9F75E98809152
:100910003901823029F58AE091E00E94590810924D
:100920008501109284010FC0E65CFE4F808190E04B
:100930000E945908809184019091850101969093BD
:10094000850180938401E0918401F0918501E63076
:10095000F10554F387E091E00E94590810923901A3
:1009600020918201309183012115310509F44CCF8A
:10097000B901882777FD8095982F0E94AA065B0110
:100980006C0120E030E04AEF54E40E9436077B011E
:100990008C0120E030E040E85FE30E947806882385
:1009A0001CF461E070E022C0C801B70120E03FEF15
:1009B0004FE757E40E9432071816A4F4C601B501A8
:1009C00020E030E040E251E40E9436070E947C06BD
:1009D00005C0CE010197F1F76150704061157105B6
:1009E000C1F707C0C801B7010E947C06CB0101977F
:1009F000F1F75E98109283011092820105CF109258
:100A0000C50083E38093C400E0ECF0E080818D7F3B
:100A1000808386E08093C20088E98093C1000895B6
:100A2000982F8091C00085FFFCCF9093C600089559
:100A300080913501E82FF0E0E555FE4FE0818F5FB2
:100A4000809335019091330191509093330180321E
:100A500010F0109235018E2F0895982F8091330158
:100A60008032F8F48F5F8093330180913401E82F56
:100A7000F0E0E555FE4F90838F5F809334018091C5
:100A80003601882339F481E0809336010E941805ED
:100A90008093C60080913401803220F0109234019E
:100AA0000895FFCF0895982F80913001803288F407
:100AB0008F5F8093300180913101E82FF0E0E553A2
:100AC000FE4F90838F5F80933101803210F010923F
:100AD00031010895F89490913001992389F0809123
:100AE0003201E82FF0E0E553FE4FE0818F5F809305
:100AF0003201803210F01092320191509093300107
:100B000078948E2F08951F920F920FB60F92112492
:100B10008F929F92AF92BF92CF92DF92EF92FF920D
:100B20000F931F932F933F934F935F936F937F93F5
:100B30008F939F93AF93BF93EF93FF93F89480911C
:100B4000C00087FFB9C06091C600209137012230F4
:100B500009F474C0233030F4222359F0213009F015
:100B6000ABC030C0233009F46FC0243009F0A4C0FA
:100B70009FC06D3429F16E3430F46134D9F065349E
:100B800009F09AC012C0633551F0663521F06E3419
:100B900009F092C013C081E38093C6008DC080919C
:100BA0002D01813009F088C04CC00E941B010E94B9
:100BB000490182C081E0809339017EC082E041C05A
:100BC00084E03FC08090380100D000D070E080E029
:100BD00090E02BE231E040E050E0EDB7FEB721833A
:100BE00032834383548320E030E040E050E0E4EB84
:100BF000EE2EF12C012D112DB3E4AB2EB12CC12C16
:100C0000D12C0E943C029924F401EE0FFF1FE80D45
:100C1000F91DEA57FE4F71836083809138018F5F21
:100C200080933801809138010F900F900F900F90B2
:100C3000863009F041C0109238013CC06093380101
:100C400083E08093370138C08090380100D000D015
:100C500070E080E090E02BE231E040E050E0EDB762
:100C6000FEB7218332834383548320E030E040E0A9
:100C700050E0F4EBEF2EF12C012D112DE3E4AE2E1C
:100C8000B12CC12CD12C0E943C029924F401EE0F0E
:100C9000FF1FE80DF91DEA57FE4F71836083109224
:100CA0003801109237010F900F900F900F9004C0F1
:100CB00060932D01109237017894FF91EF91BF91CD
:100CC000AF919F918F917F916F915F914F913F91E4
:100CD0002F911F910F91FF90EF90DF90CF90BF90D9
:100CE000AF909F908F900F900FBE0F901F90189510
:100CF0006CD008F481E0089594D088F09F5790F06C
:100D0000B92F9927B751A0F0D1F0660F771F881F30
:100D1000991F1AF0BA95C9F712C0B13081F09BD073
:100D2000B1E0089598C0672F782F8827B85F39F011
:100D3000B93FCCF3869577956795B395D9F73EF48F
:100D400090958095709561957F4F8F4F9F4F089537
:100D5000E89409C097FB3EF4909580957095619555
:100D60007F4F8F4F9F4F9923A9F0F92F96E9BB270B
:100D70009395F695879577956795B795F111F8CF87
:100D8000FAF4BB0F11F460FF1BC06F5F7F4F8F4FF2
:100D90009F4F16C0882311F096E911C0772321F0E8
:100DA0009EE8872F762F05C0662371F096E8862F80
:100DB00070E060E02AF09A95660F771F881FDAF7D7
:100DC000880F9695879597F90895990F0008550F04
:100DD000AA0BE0E8FEEF16161706E807F907C0F0C1
:100DE00012161306E407F50798F0621B730B840BC9
:100DF000950B39F40A2661F0232B242B252B21F4A3
:100E000008950A2609F4A140A6958FEF811D811D42
:100E1000089557FD9058440F551F59F05F3F71F0EA
:100E20004795880F97FB991F61F09F3F79F0879551
:100E30000895121613061406551FF2CF4695F1DFDA
:100E400008C0161617061806991FF1CF869571056A
:100E5000610508940895E894BB2766277727CB019E
:100E600097F90895B2DF08F48FEF08950BD078C09A
:100E700069D028F06ED018F0952309F05AC05FC0F1
:100E80001124EACFC6DFA0F3959FD1F3950F50E070
:100E9000551F629FF001729FBB27F00DB11D639F2C
:100EA000AA27F00DB11DAA1F649F6627B00DA11DD2
:100EB000661F829F2227B00DA11D621F739FB00D78
:100EC000A11D621F839FA00D611D221F749F3327E8
:100ED000A00D611D231F849F600D211D822F762F81
:100EE0006A2F11249F5750408AF0E1F088234AF07E
:100EF000EE0FFF1FBB1F661F771F881F91505040CA
:100F0000A9F79E3F510570F014C0A6CF5F3FECF3E8
:100F1000983EDCF3869577956795B795F795E795B5
:100F20009F5FC1F7FE2B880F911D9695879597F9C6
:100F3000089597F99F6780E870E060E008959FEF5B
:100F400080EC089500240A94161617061806090660
:100F5000089500240A94121613061406050608952F
:100F6000092E0394000C11F4882352F0BB0F40F4B7
:100F7000BF2B11F460FF04C06F5F7F4F8F4F9F4FF7
:100F80000895629FD001739FF001829FE00DF11DD3
:100F9000649FE00DF11D929FF00D839FF00D749FF3
:100FA000F00D659FF00D9927729FB00DE11DF91F9F
:100FB000639FB00DE11DF91FBD01CF0111240895FC
:100FC00097FB092E07260AD077FD04D027D006D03C
:100FD00000201AF4709561957F4F0895F6F790956B
:100FE00081959F4F089597FB092E05260ED057FD3A
:100FF00004D028D00AD0001C38F450954095309584
:1010000021953F4F4F4F5F4F0895F6F7909580958C
:10101000709561957F4F8F4F9F4F0895AA1BBB1B03
:1010200051E107C0AA1FBB1FA617B70710F0A61BE8
:10103000B70B881F991F5A95A9F780959095BC0109
:10104000CD010895A1E21A2EAA1BBB1BFD010DC004
:10105000AA1FBB1FEE1FFF1FA217B307E407F50768
:1010600020F0A21BB30BE40BF50B661F771F881F44
:10107000991F1A9469F760957095809590959B01DA
:10108000AC01BD01CF010895A0E0B0E0EAE4F8E0D2
:101090000C941B0BFE013596619171918091ED01CD
:1010A0009091EE01AF010E948E082096E2E00C9430
:1010B000370B0F931F93CF93DF938C01E091ED01DA
:1010C000F091EE01838181FF21C0C0E0D0E00DC02E
:1010D000E091ED01F091EE0120853185BF01F9012C
:1010E0000995892B11F0CFEFDFEFF80181918F0186
:1010F000882371F7E091ED01F091EE0120853185B3
:101100008AE0BF01F9010995892B11F0CFEFDFEFDC
:10111000CE01DF91CF911F910F910895ABE0B0E028
:10112000E4E9F8E00C940B0B3C012B015A01FC01A3
:1011300017821682838181FD03C06FEF7FEFC6C1E6
:101140009AE0892E1E010894211C311CF301238191
:10115000F20123FD859123FF81912F01882309F45A
:10116000B2C1853239F423FD859123FF81912F018E
:10117000853229F490E0B3010E94810AE7CF982FCD
:10118000FF24EE249924FFE1FF15D0F09B3269F093
:101190009C3228F4903259F0933291F40EC09D3273
:1011A00049F0903369F441E024C052E0F52A84E02C
:1011B000F82A28C098E0F92A25C0E0E1FE2A22C0DA
:1011C000F7FC29C0892F80538A3070F4F6FE05C0E1
:1011D000989C902C1124980E15C0E89CE02C1124AA
:1011E000E80EF0E2FF2A0EC09E3229F4F6FC6BC135
:1011F00040E4F42A07C09C3619F450E8F52A02C0EE
:10120000983649F4F20123FD959123FF91912F0126
:10121000992309F0B8CF892F8554833018F0805274
:10122000833038F444E050E0A40EB51E5FE35983E8
:101230000FC0933631F0933779F0933509F056C0EB
:1012400020C0F5018081898342E050E0A40EB51EE4
:10125000610101E010E012C0F501C080D180F6FC10
:1012600003C06FEF7FEF02C0692D70E042E050E0F5
:10127000A40EB51EC6010E94760A8C015FE7F52216
:1012800014C0F501C080D180F6FC03C06FEF7FEF82
:1012900002C0692D70E042E050E0A40EB51EC60108
:1012A0000E946B0A8C0150E8F52AF3FE07C01AC0B1
:1012B00080E290E0B3010E94810AEA948E2D90E0D2
:1012C00008171907A8F30EC0F601F7FC8591F7FE81
:1012D00081916F0190E0B3010E94810AE110EA94CC
:1012E000015010400115110579F7EAC0943611F04C
:1012F000993669F5F7FE08C0F501208131814281F8
:10130000538184E090E00AC0F501808191819C01C5
:10131000442737FD4095542F82E090E0A80EB91E77
:101320009FE6F92257FF09C05095409530952195C9
:101330003F4F4F4F5F4FE0E8FE2ACA01B901A101BC
:101340002AE030E00E94AD0AD82ED21840C095376E
:1013500029F41F2D1F7E2AE030E01DC01F2D197FAC
:101360009F3661F0903720F4983509F0ACC00FC07B
:10137000903739F0983709F0A6C004C028E030E073
:101380000AC0106114FD146020E130E004C014FDB7
:10139000166020E132E017FF08C0F501608171811D
:1013A0008281938144E050E008C0F5018081918101
:1013B000BC0180E090E042E050E0A40EB51EA10127
:1013C0000E94AD0AD82ED2188FE7F82EF122F6FE31
:1013D0000BC05EEFF522D91438F4F4FE07C0F2FC1E
:1013E00005C08FEEF82202C01D2D01C0192DF4FE9C
:1013F0000DC0FE01ED0DF11D8081803319F499EED1
:10140000F92208C01F5FF2FE05C003C08F2D867849
:1014100009F01F5F0F2DF3FC14C0F0FE0FC01E1566
:1014200010F09D2C0BC09D2C9E0C911A1E2D06C0F9
:1014300080E290E0B3010E94810A1F5F1E15C0F395
:1014400004C01E1510F4E11A01C0EE2404FF0FC001
:1014500080E390E0B3010E94810A02FF1DC001FDFC
:1014600003C088E790E00EC088E590E00BC0802FB5
:10147000867891F001FF02C08BE201C080E2F7FCA8
:101480008DE290E0B3010E94810A06C080E390E003
:10149000B3010E94810A9A94D914C0F3DA94F1013D
:1014A000ED0DF11D808190E0B3010E94810ADD20E5
:1014B000A9F706C080E290E0B3010E94810AEA9495
:1014C000EE20C1F743CEF30166817781CB012B96E5
:1014D000E2E10C94270BFC01059061507040011073
:1014E000D8F7809590958E0F9F1F0895FC0161504D
:1014F000704001900110D8F7809590958E0F9F1F36
:1015000008950F931F93CF93DF938C01EB018B8191
:1015100081FF1BC082FF0DC02E813F818C819D8188
:101520002817390764F4E881F9810193F983E88386
:1015300006C0E885F985802F0995892B31F48E81C5
:101540009F8101969F838E8302C00FEF1FEFC8011A
:10155000DF91CF911F910F910895FA01AA272830AA
:1015600051F1203181F1E8946F936E7F6E5F7F4F70
:101570008F4F9F4FAF4FB1E03ED0B4E03CD0670FEC
:10158000781F891F9A1FA11D680F791F8A1F911D3F
:10159000A11D6A0F711D811D911DA11D20D009F48F
:1015A00068943F912AE0269F11243019305D3193D1
:1015B000DEF6CF010895462F4770405D4193B3E0BA
:1015C0000FD0C9F7F6CF462F4F70405D4A3318F061
:1015D000495D31FD4052419302D0A9F7EACFB4E012
:1015E000A6959795879577956795BA95C9F70097CA
:1015F0006105710508959B01AC010A2E069457956B
:10160000479537952795BA95C9F7620F731F841FC1
:10161000951FA01D08952F923F924F925F926F9257
:101620007F928F929F92AF92BF92CF92DF92EF9272
:10163000FF920F931F93CF93DF93CDB7DEB7CA1BF3
:10164000DB0B0FB6F894DEBF0FBECDBF09942A881E
:10165000398848885F846E847D848C849B84AA84C6
:10166000B984C884DF80EE80FD800C811B81AA8153
:10167000B981CE0FD11D0FB6F894DEBF0FBECDBF1E
:08168000ED010895F894FFCF7D
:101688002025643A2564000A0D004100000000028C
:10169800000000001005000000000000000100002C
:0A16A800000000006A0500000100C8
:00000001FF
