:100000000C9434000C9446000C9446000C9446006A
:100010000C9446000C9446000C9446000C94460048
:100020000C9446000C9446000C9446000C94460038
:100030000C9446000C9446000C9446000C94460028
:100040000C9446000C9446000C9446000C94460018
:100050000C9446000C9446000C9446000C94460008
:100060000C9446000C94460011241FBECFEFD4E040
:10007000DEBFCDBF11E0A0E0B1E001C01D92A3350D
:10008000B107E1F70E9427020C942E020C940000A5
:10009000CF93DF9390E0FC01EE0FFF1FEE0FFF1FE9
:1000A000E80FF91FE35FFE4F608341E051E007C0B6
:1000B000D9016D937C93D183C0834150A1F0842FEB
:1000C00090E0880F991F9C01295B3E4FF901C08188
:1000D000D181FC01EB5BFE4F608171819881DB0176
:1000E0008C91981728F35F5F452F563041F7DF91C9
:1000F000CF910895CF93DF9341E051E007C0D9013C
:100100006D937C93D183C0834150A1F0842F90E004
:10011000880F991F9C01295B3E4FF901C081D18155
:10012000FC01EB5BFE4F608171819881DB018C915A
:10013000981728F35F5F452F563041F7DF91CF9135
:100140000895DF92EF92FF920F931F93CF93DF9367
:1001500010E0DD24E12EFF24F701EE0FFF1FE95B25
:10016000FE4F60817181DB019C91F701EE0FFF1F53
:10017000E75BFE4F0190F081E02D8081CD2DD0E036
:100180009817A9F0FE01EE5FFE4F9083CC0FDD1FA4
:10019000CC0FDD1FC15DDE4F11968D919D910D90AD
:1001A000BC91A02D88839983AA83BB833DC0FE01A7
:1001B000EE5FFE4F9083FE01EE0FFF1FEE0FFF1F5D
:1001C000E15DFE4FEB0189819A81AB81BC81808327
:1001D0009183A283B38301E0EF0111C088819981EB
:1001E000AA81BB812181328143815481822B932B4F
:1001F000A42BB52B88839983AA83BB830F5F9701B8
:10020000200F311DF901EE0FFF1FE95BFE4F01903A
:10021000F081E02DDB019C918081981719F4263044
:100220003105E4F21150100F1F5FD394163008F41B
:1002300091CFED2DF0E0EE5FFE4F8FEF8083DF91E9
:10024000CF911F910F91FF90EF90DF9008951F9233
:100250000F920FB60F9211242F933F934F935F93FA
:100260006F937F938F939F93AF93BF93EF93FF937E
:1002700020910101222309F43FC0E22FF0E0DF01C9
:10028000AE5FBE4F8C918093B300EE0FFF1FEE0F59
:10029000FF1FE55DFE4F80819181A281B381809334
:1002A000090190930A01A0930B01B0930C0195B141
:1002B000809109018095892385B92F5F20930101E1
:1002C0008091B3008F3F59F51092010189E6809328
:1002D000B2008091B000887F8093B0008091B00020
:1002E00085608093B000809100018823C1F00E9456
:1002F000A1001092000113C0809102018093B3000D
:100300008091B000887F8093B0008091B0008460BD
:100310008093B0008FEF85B981E080930101FF9158
:10032000EF91BF91AF919F918F917F916F915F916D
:100330004F913F912F910F900FBE0F901F901895E6
:100340008DE091E09093480180934701059690934A
:100350004A0180934901059690934C0180934B018B
:10036000059690934E0180934D0105969093500110
:1003700080934F0105969093520180935101059609
:10038000909354018093530181E090E0A0E0B0E0AD
:1003900080930E0190930F01A0931001B09311016F
:1003A00082E090E0A0E0B0E080931301909314010C
:1003B000A0931501B093160184E090E0A0E0B0E0B6
:1003C0008093180190931901A0931A01B0931B0117
:1003D00088E090E0A0E0B0E080931D0190931E01C2
:1003E000A0931F01B093200180E190E0A0E0B0E075
:1003F0008093220190932301A0932401B0932501BF
:1004000080E290E0A0E0B0E0809327019093280183
:10041000A0932901B0932A0110920D0110921201AC
:100420001092170110921C011092210110922601C6
:100430000E947A000E94A100E0E7F0E080818260E3
:100440008083E0EBF0E080818560808308958FE316
:1004500084B915B80E94A0017894FFCFF894FFCF1B
:00000001FF
