:100000000C9434000C9446000C9446000C9446006A
:100010000C9446000C9446000C9446000C94460048
:100020000C9446000C9446000C9446000C94460038
:100030000C9446000C9446000C9446000C9401016C
:100040000C9446000C9446000C9446000C94460018
:100050000C9446000C9446000C9446000C94460008
:100060000C9446000C94460011241FBECFEFD4E040
:10007000DEBFCDBF11E0A0E0B1E001C01D92AB3208
:10008000B107E1F70E949C020C9475030C940000E8
:10009000CF93DF93E82FF0E0EE0FFF1FE45FFE4FFA
:1000A000608341E051E007C0D9016D937C93D18317
:1000B000C0834150A1F0842F90E0880F991F9C01CC
:1000C000215E3E4FF901C081D181FC01E35EFE4F0C
:1000D000608171819881DB018C91981728F35F5FB3
:1000E000452F563041F7DF91CF910895CF93DF939D
:1000F00041E051E007C0D9016D937C93D183C08367
:100100004150A1F0842F90E0880F991F9C01215E3F
:100110003E4FF901C081D181FC01E35EFE4F608159
:1001200071819881DB018C91981728F35F5F452FCF
:10013000563041F7DF91CF9108950F931F93CF93DE
:10014000DF930091020140E010E0642F70E0FB01BA
:10015000EE0FFF1FE15EFE4FC081D1819881992390
:1001600011F08981082BFB01EE0FFF1FEF5DFE4FA1
:100170000190F081E02D8081A12FB0E0981751F01F
:10018000FD01ED5FFE4F9083A85EBE4F8981119601
:100190008C9325C0FD01ED5FFE4F9083FD01E75E6E
:1001A000FE4F8981808351E0DF0105C08C919181F0
:1001B000892B8C935F5F9B01250F311DF901EE0F99
:1001C000FF1FE15EFE4F0190F081E02D988180815C
:1001D000981719F4263031054CF34150450F4F5F05
:1001E0001F5F463008F4B1CF00930201E12FF0E029
:1001F000ED5FFE4F8FEF8083DF91CF911F910F91C5
:1002000008951F920F920FB60F9211242F933F93D0
:100210004F935F936F937F938F939F93AF93BF930E
:10022000EF93FF9390910101992391F1E92FF0E071
:10023000ED5FFE4F8081882319F49F5F9093010149
:1002400090910101A92FB0E0FD01ED5FFE4F80818B
:1002500088BD25B1A85EBE4F8C918095822385B95B
:100260009F5F9093010188B58F3F69F5109201015E
:1002700089E686BD85B5887F85BD85E085BD809191
:100280000001882301F10E949D00109200011BC013
:1002900080910301882319F481E0809301019091FA
:1002A0000101E92FF0E0ED5FFE4F808188BD85B54B
:1002B000887F85BD85B5846085BD8091020185B943
:1002C0009F5F90930101FF91EF91BF91AF919F913B
:1002D0008F917F916F915F914F913F912F910F90EF
:1002E0000FBE0F901F9018950E94760081E08093BA
:1002F000000108952F923F924F925F926F927F92EA
:100300008F929F92AF92BF92CF92DF92EF92FF9225
:100310000F931F93DF93CF93CDB7DEB73B014C0113
:1003200019012A016D897E898F89988D6A197B0947
:100330008C099D09621A730A840A950AA401930123
:100340000E941903E218F30804091509A80197018E
:100350000E9438032A0D3B1D4C1D5D1DB901CA01C9
:10036000CF91DF911F910F91FF90EF90DF90CF9091
:10037000BF90AF909F908F907F906F905F904F90C5
:100380003F902F9008956F927F928F929F92AF929D
:10039000BF92CF92DF92EF92FF920F931F938CE068
:1003A00091E09093200180931F0102969093220187
:1003B0008093210102969093240180932301029659
:1003C00090932601809325010296909328018093B3
:1003D0002701029690932A018093290181E080935E
:1003E0000D0182E080930F0184E08093110188E089
:1003F0008093130180E18093150180E280931701BF
:1004000000D000D0AAE46A2E712C812C912CEDB77B
:10041000FEB761827282838294826AE570E080E036
:1004200090E020E030E040E050E0F3EBEF2EF12CE4
:10043000012D112DE0E1AE2EB12CC12CD12C0E944A
:100440007A0160930C0160930E01EDB7FEB76182F3
:100450007282838294826AE070E080E090E020E023
:1004600030E040E050E00E947A010F900F900F9032
:100470000F906093100160931201609314016093D8
:1004800016010E9476000E949D00EEE6F0E0808159
:100490008460808385B5846085BD1F910F91FF9036
:1004A000EF90DF90CF90BF90AF909F908F907F9014
:1004B0006F9008958F929F92AF92BF92CF92DF92EA
:1004C000EF92FF920F931F934C0100D000D088272A
:1004D00077FD8095982F2AE430E040E050E0EDB7BA
:1004E000FEB7218332834383548320E030E040E031
:1004F00050E0F3EBEF2EF12C012D112DE0E1AE2EAB
:10050000B12CC12CD12C0E947A010F900F900F902A
:100510000F90880C991C8CE091E0880E991EF401D4
:1005200060831F910F91FF90EF90DF90CF90BF906D
:10053000AF909F908F900895EF92FF920F931F932B
:10054000CF93DF938FE384B915B80E94C301569A05
:10055000789404EB10E0C8ECD0E0A4EBEA2EF12C88
:1005600010920B0110920A0121C080E090E00E94DD
:100570005A0280910A0190910B01B801681B790B16
:1005800081E090E00E945A020E94740184EF91E0A1
:10059000FE013197F1F70197D9F780910A01909107
:1005A0000B01019690930B0180930A0160910A015F
:1005B00070910B01643B7105C4F288EE93E0FE017B
:1005C0003197F1F70197D9F7F0920B01E0920A0108
:1005D00021C080E090E00E945A0280910A0190912F
:1005E0000B01B801681B790B81E090E00E945A0270
:1005F0000E94740184EF91E0FE013197F1F70197B9
:10060000D9F780910A0190910B01019790930B010A
:1006100080930A0160910A0170910B01161617066A
:10062000C4F288EE93E0FE013197F1F70197D9F714
:1006300097CF629FD001739FF001829FE00DF11D63
:10064000649FE00DF11D929FF00D839FF00D749F4C
:10065000F00D659FF00D9927729FB00DE11DF91FF8
:10066000639FB00DE11DF91FBD01CF011124089555
:1006700097FB092E05260ED057FD04D014D00AD0C2
:10068000001C38F450954095309521953F4F4F4FC1
:100690005F4F0895F6F790958095709561957F4F1F
:1006A0008F4F9F4F0895A1E21A2EAA1BBB1BFD017D
:1006B0000DC0AA1FBB1FEE1FFF1FA217B307E40741
:1006C000F50720F0A21BB30BE40BF50B661F771F99
:1006D000881F991F1A9469F7609570958095909579
:0E06E0009B01AC01BD01CF010895F894FFCF3E
:00000001FF
